:020000040800F2
:1000000000000120C51A0008A5170008A71700085E
:10001000A9170008AB170008AD1700080000000082
:10002000000000000000000000000000AF17000802
:10003000B117000800000000B3170008B51700084A
:100040000D1B00080D1B00080D1B00080D1B0008F0
:100050000D1B00080D1B00080D1B00080D1B0008E0
:100060000D1B00080D1B00080D1B00080D1B0008D0
:100070000D1B00080D1B00080D1B0008BD17000814
:100080000D1B00080D1B00080D1B00080D1B0008B0
:100090000D1B00080D1B00080D1B00080D1B0008A0
:1000A0000D1B00080D1B00080D1B00080D1B000890
:1000B0000D1B00080D1B00080D1B00080D1B000880
:1000C0000D1B00080D1B00080D1B00080D1B000870
:1000D0000D1B0008CD1700080D1B00080D1B0008A4
:1000E000DD1700080D1B00080D1B00080D1B000884
:1000F0000D1B00080D1B00080D1B00080D1B000840
:100100000D1B00080D1B00080D1B00080D1B00082F
:100110000D1B00080D1B0008E9170008F91700085F
:100120000D1B00080D1B00080D1B00080D1B00080F
:1001300000000000000000000000000000000000BF
:1001400000000000000000000000000000000000AF
:10015000000000000000000000000000000000009F
:10016000000000000000000000000000000000008F
:10017000000000000000000000000000000000007F
:10018000000000000000000000000000000000006F
:10019000000000000000000000000000000000005F
:1001A000000000000000000000000000000000004F
:1001B000000000000000000000000000000000003F
:1001C000000000000000000000000000000000002F
:1001D000000000000000000000000000000000001F
:0401E0005FF8E0F1F3
:1001E800844641EA000313F0030349D1403A23D37C
:1001F8000B6803604B6843608B688360CB68C3609F
:100208000B6903614B6943618B698361CB69C36186
:100218000B6A03624B6A43628B6A8362CB6AC3626E
:100228000B6B03634B6B43638B6B8363CB6BC36356
:1002380040304031403ADBD230320BD30B68036098
:100248004B6843608B688360CB68C36010301031A3
:10025800103AF3D20C3205D351F8043B40F8043B72
:10026800043AF9D2043208D0D2071CBF11F8013B76
:1002780000F8013B01D30B8803806046704700BF3C
:10028800082A13D38B07B1D010F00303AED0C3F103
:100298000403D21ADB071CBF11F8013B00F8013B2D
:1002A800A4D331F8023B20F8023B9FE7043AD9D3A4
:1002B800013A11F8013B00F8013BF9D20B780370C1
:1002C8004B7843708B7883706046704781F00041AB
:1002D80002E000BF83F0004330B54FEA41044FEA23
:1002E800430594EA050F08BF90EA020F1FBF54EABE
:1002F800000C55EA020C7FEA645C7FEA655C00F05A
:10030800E2804FEA5454D4EB5555B8BF6D420CDD2A
:100318002C4480EA020281EA030382EA000083EAAD
:10032800010180EA020281EA0303362D88BF30BD4D
:1003380011F0004F4FEA01314FF4801C4CEA1131A3
:1003480002D0404261EB410113F0004F4FEA033302
:100358004CEA133302D0524263EB430394EA050F8D
:1003680000F0A780A4F10104D5F1200E0DDB02FAFC
:100378000EFC22FA05F2801841F1000103FA0EF290
:10038800801843FA05F359410EE0A5F120050EF156
:10039800200E012A03FA0EFC28BF4CF0020C43FA87
:1003A80005F3C01851EBE37101F0004507D54FF094
:1003B800000EDCF1000C7EEB00006EEB0101B1F5E4
:1003C800801F1BD3B1F5001F0CD349085FEA30002A
:1003D8004FEA3C0C04F101044FEA445212F5800F35
:1003E80080F09A80BCF1004F08BF5FEA500C50F1D2
:1003F800000041EB045141EA050130BD5FEA4C0CB5
:10040800404141EB0101013C28BFB1F5801FE9D211
:1004180091F0000F04BF01460020B1FA81F308BF34
:100428002033A3F10B03B3F120020CDA0C3208DD00
:1004380002F1140CC2F10C0201FA0CF021FA02F1DB
:100448000CE002F11402D8BFC2F1200C01FA02F14B
:1004580020FA0CFCDCBF41EA0C019040E41AA2BF70
:1004680001EB0451294330BD6FEA04041F3C1CDA38
:100478000C340EDC04F11404C4F1200220FA04F058
:1004880001FA02F340EA030021FA04F345EA030102
:1004980030BDC4F10C04C4F1200220FA02F001FAC4
:1004A80004F340EA0300294630BD21FA04F0294646
:1004B80030BD94F0000F83F4801306BF81F48011DF
:1004C8000134013D4EE77FEA645C18BF7FEA655C52
:1004D80029D094EA050F08BF90EA020F05D054EA24
:1004E800000C04BF1946104630BD91EA030F1EBF29
:1004F8000021002030BD5FEA545C05D1400049412D
:1005080028BF41F0004130BD14F580043CBF01F51F
:10051800801130BD01F0004545F0FE4141F4700105
:100528004FF0000030BD7FEA645C1ABF19461046E0
:100538007FEA655C1CBF0B46024650EA013406BFE1
:1005480052EA033591EA030F41F4002130BD00BFA0
:1005580090F0000F04BF0021704730B54FF480645D
:1005680004F132044FF000054FF0000150E700BFDE
:1005780090F0000F04BF0021704730B54FF480643D
:1005880004F1320410F0004548BF40424FF000012A
:100598003EE700BF42004FEAE2014FEA31014FEA6D
:1005A80002701FBF12F07F4393F07F4F81F06051BC
:1005B800704732F07F4208BF704793F07F4F04BF07
:1005C80041F40021704730B54FF4607401F00045E4
:1005D80021F000411CE700BF50EA010208BF704744
:1005E80030B54FF000050AE050EA010208BF704735
:1005F80030B511F0004502D5404261EB41014FF49E
:10060800806404F132045FEA915C3FF4D8AE4FF0A5
:1006180003025FEADC0C18BF03325FEADC0C18BF88
:10062800033202EBDC02C2F1200300FA03FC20FAD9
:1006380002F001FA03FE40EA0E0021FA02F1144426
:10064800BDE600BF70B54FF0FF0C4CF4E06C1CEA3F
:1006580011541DBF1CEA135594EA0C0F95EA0C0FB0
:1006680000F0DEF82C4481EA030621EA4C5123EA23
:100678004C5350EA013518BF52EA033541F4801152
:1006880043F4801338D0A0FB02CE4FF00005E1FB05
:1006980002E506F00042E0FB03E54FF00006E1FB4F
:1006A80003569CF0000F18BF4EF0010EA4F1FF0492
:1006B800B6F5007F64F5407404D25FEA4E0E6D41D2
:1006C80046EB060642EAC62141EA55514FEAC520E3
:1006D80040EA5E504FEACE2EB4F1FD0C88BFBCF55F
:1006E800E06F1ED8BEF1004F08BF5FEA500E50F110
:1006F800000041EB045170BD06F0004646EA0101D6
:1007080040EA020081EA0301B4EB5C04C2BFD4EB07
:100718000C0541EA045170BD41F480114FF0000E00
:10072800013C00F3AB8014F1360FDEBF002001F06E
:10073800004170BDC4F10004203C35DA0C341BDCE8
:1007480004F11404C4F1200500FA05F320FA04F0BA
:1007580001FA05F240EA020001F0004221F00041EE
:1007680010EBD37021FA04F642EB06015EEA430E61
:1007780008BF20EAD37070BDC4F10C04C4F1200591
:1007880000FA04F320FA05F001FA04F240EA020044
:1007980001F0004110EBD37041F100015EEA430E15
:1007A80008BF20EAD37070BDC4F1200500FA05F235
:1007B8004EEA020E20FA04F301FA05F243EA0203B4
:1007C80021FA04F001F0004121FA04F220EA0200C3
:1007D80000EBD3705EEA430E08BF20EAD37070BD09
:1007E80094F0000F0FD101F00046400041EB0101E9
:1007F80011F4801F08BF013CF7D041EA060195F0CB
:10080800000F18BF704703F00046520043EB030384
:1008180013F4801F08BF013DF7D043EA0603704771
:1008280094EA0C0F0CEA135518BF95EA0C0F0CD07C
:1008380050EA410618BF52EA4306D1D181EA0301C2
:1008480001F000414FF0000070BD50EA410606BFBC
:100858001046194652EA430619D094EA0C0F02D101
:1008680050EA013613D195EA0C0F05D152EA033646
:100878001CBF104619460AD181EA030101F0004164
:1008880041F0FE4141F470014FF0000070BD41F0AD
:10089800FE4141F4780170BD70B54FF0FF0C4CF487
:1008A800E06C1CEA11541DBF1CEA135594EA0C0FA6
:1008B80095EA0C0F00F0A7F8A4EB050481EA030EF3
:1008C80052EA03354FEA013100F088804FEA0333DA
:1008D8004FF0805545EA131343EA12634FEA0222A8
:1008E80045EA111545EA10654FEA00260EF0004169
:1008F8009D4208BF964244F1FD0404F5407402D2BB
:100908005B084FEA3202B61A65EB03055B084FEA4B
:1009180032024FF480104FF4002CB6EB020E75EB48
:10092800030E22BFB61A754640EA0C005B084FEA70
:100938003202B6EB020E75EB030E22BFB61A7546ED
:1009480040EA5C005B084FEA3202B6EB020E75EB38
:10095800030E22BFB61A754640EA9C005B084FEAB0
:100968003202B6EB020E75EB030E22BFB61A7546BD
:1009780040EADC0055EA060E18D04FEA051545EAAC
:1009880016754FEA06164FEAC30343EA52734FEA55
:10099800C2025FEA1C1CC0D111F4801F0BD141EACE
:1009A80000014FF000004FF0004CB6E711F4801F33
:1009B80004BF01430020B4F1FD0C88BFBCF5E06F13
:1009C8003FF6AFAEB5EB030C04BFB6EB020C5FEA23
:1009D800500C50F1000041EB045170BD0EF0004E78
:1009E8004EEA113114EB5C04C2BFD4EB0C0541EAAA
:1009F800045170BD41F480114FF0000E013C90E6A7
:100A080045EA060E8DE60CEA135594EA0C0F08BF6A
:100A180095EA0C0F3FF43BAF94EA0C0F0AD150EA69
:100A280001347FF434AF95EA0C0F7FF425AF1046FC
:100A380019462CE795EA0C0F06D152EA03353FF424
:100A4800FDAE1046194622E750EA410618BF52EAA1
:100A580043067FF4C5AE50EA41047FF40DAF52EA75
:100A680043057FF4EBAE12E74FF0FF3C06E000BF12
:100A78004FF0010C02E000BF4FF0010C4DF804CD1F
:100A88004FEA410C7FEA6C5C4FEA430C18BF7FEADF
:100A98006C5C1BD001B050EA410C0CBF52EA430C0D
:100AA80091EA030F02BF90EA020F0020704710F18D
:100AB800000F91EA030F58BF994208BF90422CBF1C
:100AC800D8176FEAE37040F0010070474FEA410C15
:100AD8007FEA6C5C02D150EA013C07D14FEA430C33
:100AE8007FEA6C5CD6D152EA033CD3D05DF8040BA4
:100AF800704700BF8446104662468C4619466346D6
:100B080000E000BF01B5FFF7B7FF002848BF10F1AC
:100B1800000F01BD4DF808EDFFF7F4FF0CBF0120F1
:100B280000205DF808FB00BF4DF808EDFFF7EAFF6D
:100B380034BF012000205DF808FB00BF4DF808ED28
:100B4800FFF7E0FF94BF012000205DF808FB00BF1D
:100B58004DF808EDFFF7CEFF94BF012000205DF8A7
:100B680008FB00BF4DF808EDFFF7C4FF34BF0120B4
:100B780000205DF808FB00BF4FEA410C7FEA6C5C7F
:100B880002D150EA013C0AD14FEA430C7FEA6C5C7F
:100B980002D152EA033C02D14FF0000070474FF0F7
:100BA800010070474FEA410212F5001215D211D523
:100BB8006FF47873B3EB625212D94FEAC12343F052
:100BC800004343EA505311F0004F23FA02F018BFD4
:100BD800404270474FF00000704750EA013005D19D
:100BE80011F0004008BF6FF0004070474FF0000060
:100BF800704700BF0348044B834202D0034B03B144
:100C080018477047E4060020E406002000000000B2
:100C18000548064B1B1AD90F01EBA301491002D056
:100C2800034B03B118477047E4060020E406002090
:100C38000000000010B5064C237843B9FFF7DAFF2F
:100C4800044B13B10448AFF300800123237010BD97
:100C5800E4060020000000006096000808B5054B77
:100C68001BB105490548AFF30080BDE80840FFF710
:100C7800CFBF00BF00000000E80600206096000813
:100C880010B504460848036800225A626FF0010252
:100C98001A6101F00DFF044B1B685B6AA342FAD38B
:100CA800014801F03BFF10BD6807002010B503E0C4
:100CB8008C20FFF7E5FF2046431EDCB20028F7D161
:100CC80010BD000070B50F20FFF7F0FF4FF48061F2
:100CD800704801F0A5FB012803D132E00120FFF79D
:100CE800E5FF4FF480616B4801F09AFB0028F5D0CE
:100CF8000026032E36D800252FE00120FFF7D6FF67
:100D08004FF48061634801F08BFB0128F5D002E0C5
:100D18000120FFF7CBFF4FF480615E4801F080FBB4
:100D28000028F5D000244FF480615A4801F078FB80
:100D3800012807D10120FFF7B9FF0134E4B21D2CC7
:100D4800F1D970BD544A935D5B089355072C02D9BD
:100D580063F07F0393550135EDB2072DD0D90136E5
:100D6800F6B2C6E74C4AD378DB43DBB292789A42B4
:100D7800E7D1153A322AE4D801A353F822F000BF8C
:100D8800630E00084B0D00084B0D00084B0D0008C2
:100D98004B0D00084B0D00084B0D00084B0D0008CB
:100DA8004B0D00084B0D00084B0D00084B0D0008BB
:100DB8004B0D00084B0D00084B0D00084B0D0008AB
:100DC8004B0D00084B0D00084B0D00084B0D00089B
:100DD8004B0D00084B0D00084B0D00084B0D00088B
:100DE8004B0D00084B0D00084B0D00084B0D00087B
:100DF8004B0D00084B0D00084B0D00084B0D00086B
:100E08004B0D00084B0D00084B0D00084B0D00085A
:100E18004B0D00084B0D00084B0D00084B0D00084A
:100E28004B0D00084B0D00084B0D00087B0E000809
:100E38004B0D00084B0D0008730E00086B0E0008E0
:100E4800830E0008550E00088B0E0008134B412234
:100E58001A70134B01221A7073E7104B42221A7052
:100E6800F7E70E4B43221A70F3E70C4B44221A7033
:100E7800EFE70A4B49221A70EBE7084B45221A7034
:100E8800E7E7084B03221A700021084600F014F81F
:100E9800DFE700BF00140140000700200000002029
:100EA8000407002001000020B0F5806F00D07047D3
:100EB80008B5FFF707FF08BD38B50C46051E0EDC60
:100EC80055B3002D16DA00224FF400612F4801F0C7
:100ED800AEFA012211462E4801F0A9FA0AE00122D1
:100EE8004FF40061294801F0A2FA002201212848A4
:100EF80001F09DFA002C1BDC002C3AD0002C22DAE1
:100F080000224021224801F092FA01224FF4007198
:100F1800204801F08CFA16E000224FF400611B48CB
:100F280001F085FA00220121194801F080FAE1E771
:100F380001224021164801F07AFA00224FF400718C
:100F4800144801F074FA85EAE570A0EBE570B0F595
:100F58007A7FA8BF4FF47A700F4B1860002CB8BF87
:100F68006442B4F57A7FA8BF4FF47A740B4B1C60C7
:100F780038BD00224021064801F059FA00224FF4FA
:100F88000071044801F053FADDE700BF001001408A
:100F98000014014000200140140700201007002021
:100FA800174B834200D0704710B5164A13680133B7
:100FB8001360154A1268934207D0144A1268934284
:100FC80009D0B3F57A7F0CDA10BD00221021104841
:100FD80001F02DFAF8E7002204210D4801F027FA64
:100FE800F2E70B4C01221021204601F020FA0122E1
:100FF8000421204601F01BFA024B00221A60E3E7A5
:1010080020070020180700201407002010070020E0
:101018000014014008B5413808280AD8DFE800F074
:101028000514202E470909093B00324B1B78012B78
:1010380000D008BD4FF4D3714FF4BD70FFF73CFFEB
:101048002D4800F039FAF4E72A4B1B78012BF0D130
:101058002A492B48FFF730FF2A4800F02DFAE8E725
:10106800244B1B78012BE4D14FF488714FF40470A2
:10107800FFF722FF244800F01FFADAE71D4B1B7820
:10108800012BD6D14FF40F71E420FFF715FF1F484D
:1010980000F012FACDE7174B1B78012BC9D10021BC
:1010A8000846FFF709FF1A4800F006FAC1E7194891
:1010B80000F002FA0F4B1B78012B0BD0022B11D03A
:1010C800022BB6D90B4B01221A7000210846FFF7F4
:1010D800F3FEAEE70133074A137000210846FFF715
:1010E800EBFEA6E70133034A137000210846FFF719
:1010F800E3FE9EE701000020789600085AFEFFFFF5
:1011080086FEFFFF7C960008849600088C960008EF
:10111800949600089C96000808B51E491E48FFF7DB
:10112800CBFE4FF4967000F039FD00214FF4FA70B1
:10113800FFF7C2FE4FF4FA7000F030FD40F20A21CA
:101148004FF4EF70FFF7B8FE4FF4167000F026FD6D
:101158004FF42F710020FFF7AFFE4FF4167000F028
:101168001DFD4FF4A1714FF48B70FFF7A5FE4FF4EE
:10117800FA7000F013FD4021084801F051F90028E9
:10118800F9D000214FF4FA70FFF796FEC82000F05E
:1011980005FD08BD5AFEFFFF86FEFFFF0020014047
:1011A80008B51E491E48FFF787FE4FF4967000F0F9
:1011B800F5FC4FF4FA710020FFF77EFE4FF4FA7049
:1011C80000F0ECFC40F20A214FF4EF70FFF774FED8
:1011D8004FF4167000F0E2FC00214FF42F70FFF777
:1011E8006BFE4FF4167000F0D9FC4FF4A1714FF468
:1011F8008B70FFF761FE4FF4FA7000F0CFFC1021FE
:10120800084801F00DF90028F9D04FF4FA710020D0
:10121800FFF752FEC82000F0C1FC08BD5AFEFFFFD0
:1012280086FEFFFF0020014008B580213C4801F000
:10123800F7F8012810D08021394801F0F1F888B179
:101248000421384801F0ECF8012837D0042135484A
:1012580001F0E6F8C0B308BD4FF4FA710846FFF78D
:101268002BFEEDE700210846FFF726FE4FF4FA7043
:1012780000F094FC2C492D48FFF71EFE4FF4FA703D
:1012880000F08CFC4FF4FA714FF49670FFF714FEDF
:101298004FF47A7000F082FC8021214801F0C0F8F8
:1012A80030B94FF4FA714FF49670FFF705FEC7E7AF
:1012B8004FF4FA710846FFF7FFFDC1E74FF4FA71E2
:1012C8000846FFF7F9FDC6E700210846FFF7F4FDD9
:1012D8004FF4FA7000F062FC15480146FFF7ECFD88
:1012E8004FF4FA7000F05AFC4FF496714FF4FA700C
:1012F800FFF7E2FD4FF47A7000F050FC0421094832
:1013080001F08EF830B94FF496714FF4FA70FFF788
:10131800D3FDA0E74FF4FA710846FFF7CDFD9AE731
:101328000010014000200140BEFEFFFFEAFEFFFF63
:1013380070FEFFFF2DE9F04186B05A4E402130463D
:1013480001F06EF8044603904FF48071304601F0C6
:1013580067F8054604901021304601F061F8074609
:1013680005900421304601F05BF806460190802183
:101378004D4801F055F8804602900CB9012D1FD058
:1013880014B90DB9012F29D00CB9012D33D0012C76
:101398003FD0012C4ED0454B1B68012B5CD0B3F1DC
:1013A800FF3F60D04FF4D3714FF4BD70FFF784FD59
:1013B800002E5ED0B8F1000F67D006B0BDE8F0810E
:1013C800002FDDD14FF4A1714FF48B70FFF774FD3E
:1013D8000023374A1360354A1360E9E76FF0B1011B
:1013E80040F20A30FFF768FD304B01221A60304B9B
:1013F80000221A60DCE7012FC9D1162140F24220F1
:10140800FFF75AFD294B01221A60294B00221A6066
:10141800CEE7002DBDD1002FBBD140F29A3125482F
:10142800FFF74AFD214B4FF0FF321A60204B002294
:101438001A60BDE7012DAED1002FACD140F26E216C
:101448006FF01500FFF738FD184B4FF0FF321A60A8
:10145800174B00221A60ABE76FF0B10140F20A3077
:10146800FFF72AFDA4E740F29A311248FFF724FD5E
:101478009EE70A2000F092FB04210A4800F0D0FF02
:1014880000289AD1FFF748FE97E70A2000F086FB6C
:101498008021054800F0C4FF00288ED1FFF780FEA8
:1014A8008BE700BF00200140001001400C0700201E
:1014B80008070020BEFEFFFF0FB400B5A3B024ABA1
:1014C80053F8042B0193802102A802F073F96423D6
:1014D80082B202A9034801F000FE23B05DF804EBD4
:1014E80004B07047F407002000B583B00A4B5A696E
:1014F80042F001025A615B6903F001030193019B09
:10150800002211460F2000F0A3FB0F2000F0B0FBD3
:1015180003B05DF804FB00BF001002402DE9F04362
:1015280089B000240494059406940794434B9A695F
:1015380042F010029A619A6902F010020092009A31
:101548009A6942F020029A619A6902F02002019297
:10155800019A9A6942F480729A619A6902F48072D7
:101568000292029A9A6942F004029A619B6903F016
:1015780004030393039BDFF8C89022464FF42051DD
:10158800484600F054FFDFF8BC802246552140460B
:1015980000F04DFF2C4E22464FF40071304600F00B
:1015A80046FF4FF42053049301250595069402271E
:1015B800079704A9484600F017FE4FF48063049388
:1015C800224B0593069504A9404600F00DFE04231E
:1015D80004930594069404A9304600F005FE4FF4E0
:1015E800A87304930594069504A9304600F0FCFD01
:1015F800802304930594069404A9484600F0F4FD5A
:101608005523049305950694079704A9404600F0CE
:10161800EBFD4FF40073049305950694079704A90E
:10162800304600F0E1FD22462146282000F010FB5C
:10163800282000F01DFB09B0BDE8F083001002402F
:10164800001001400014014000200140000021105A
:1016580072B6FEE700B591B02822002106A802F074
:10166800E3F8002301930293039304930593012263
:1016780006924FF4803307930A9202220D920E933A
:101688004FF4E0130F9306A800F004FF80B90F236E
:10169800019302210291002303934FF48062049284
:1016A800059301A801F028F920B911B05DF804FBF1
:1016B800FFF7CEFFFFF7CCFF08B500F04BFAFFF7B6
:1016C800C9FFFFF72BFFFFF70FFF00F021F900F02C
:1016D8007DF900F0F5F81B4801F034FA0FE01A4BD9
:1016E80000221A70194B1878FFF794FC0BE04FF49E
:1016F8000051174800F0A1FE322000F04FFA124BBB
:101708001B78012BEBD0134B1B78022B04D0032B37
:101718000DD0012BF3D1EAE7FFF70CFE4FF400518F
:101728000B4800F08AFE052000F038FAE7E7FFF7DB
:101738007BFD4FF40051064800F07FFE322000F098
:101748002DFADCE720070020040700200000002015
:10175800001001400100002082B00E4B9A6942F04F
:1017680001029A619A6902F001020092009ADA690C
:1017780042F08052DA61DB6903F080530193019BE8
:10178800054A536823F0E06343F00073536002B0E6
:10179800704700BF0010024000000140FEE7FEE76E
:1017A800FEE7FEE7FEE770477047704708B500F0B0
:1017B800E3F908BD08B5024800F0A0FB08BD00BF6A
:1017C800B007002008B5024801F07AFD08BD00BF47
:1017D800F407002008B54FF4806000F037FE08BD1C
:1017E80008B5024801F0EEF908BD00BF68070020FF
:1017F80008B5024801F0E6F908BD00BF200700203F
:101808000120704708B502F0B3F8162303604FF0C3
:10181800FF3008BD08B54FF0FF31FFF7F3FFFEE7D3
:1018280070B50C461646002506E0AFF30080214649
:1018380001F8010B01350C46B542F6DB304670BDA8
:1018480070B50C461646002504E014F8010BAFF3FA
:1018580000800135B542F8DB304670BD4FF0FF30EF
:1018680070474FF400534B600020704701207047C9
:101878000020704710B503460C4A0D490D48006812
:1018880040B10C4800680344521A934206D8094AEA
:10189800136010BD0748084C0460F2E702F068F8CE
:1018A8000C2303604FF0FF30F3E700BF0000012076
:1018B800000400001C070020580B0020704700009F
:1018C80000B583B00023009301930F480F4A0260CC
:1018D8004722426083604FF6FF72C260836101F065
:1018E80075FA50B90023009301936946064801F040
:1018F80099FA28B903B05DF804FBFFF7A9FEF1E7F0
:10190800FFF7A6FEF6E700BF6807002000100040BA
:1019180000B583B00023009301930E480E4A02607D
:101928004722426083600922C260836101F04EFA57
:1019380050B90023009301936946064801F072FAF2
:1019480028B903B05DF804FBFFF782FEF1E7FFF763
:101958007FFEF6E7200700200014004000B583B0A2
:101968000368174A934205D0164A934215D003B02C
:101978005DF804FB144BDA6942F01002DA61DB69A6
:1019880003F010030093009B00221146362000F05C
:101998005FF9362000F06CF9E9E70B4BDA6942F0A1
:1019A8002002DA61DB6903F020030193019B002226
:1019B8001146372000F04CF9372000F059F9D6E7E6
:1019C80000100040001400400010024008B50A480A
:1019D8000A4B03604FF4E133436000238360C36024
:1019E80003610C2242618361C36101F046FB00B9C7
:1019F80008BDFFF72DFEFBE7F40700200038014083
:101A080070B586B00023029303930493059302688C
:101A1800264B9A4201D006B070BD044603F55843E0
:101A28009A6942F480429A619A6902F4804200926B
:101A3800009A9A6942F004029A619B6903F00403D0
:101A48000193019B4FF40073029302230393032332
:101A58000593174E02A9304600F0C6FB4FF4806389
:101A6800029300250395049502A9304600F0BCFBBB
:101A78001048114B0360456085608023C360056191
:101A880045618561C56100F015F958B9094BE363F3
:101A98005C6200221146252000F0DAF8252000F0CB
:101AA800E7F8B8E7FFF7D4FDF0E700BF00380140DA
:101AB80000080140B007002058000240FFF7FEFE72
:101AC8000B480C490C4A002302E0D458C450043394
:101AD800C4188C42F9D3094A094C002301E0136069
:101AE8000432A242FBD301F049FFFFF7E5FD70473E
:101AF80000000020E4060020D09A0008E406002038
:101B0800540B0020FEE7000010B504460E4B1A786F
:101B18004FF47A73B3FBF2F30C4A1068B0FBF3F09E
:101B280000F0B4F868B90F2C01D901200AE00022AE
:101B380021464FF0FF3000F08BF8054B1C60002069
:101B480000E0012010BD00BF0800002004000020B4
:101B58000C00002008B5074A136843F0100313600F
:101B6800032000F063F80F20FFF7CEFFFFF7F4FD26
:101B7800002008BD00200240034A1168034B1B786F
:101B88000B441360704700BF3C0800200800002089
:101B9800014B1868704700BF3C08002038B5044660
:101BA800FFF7F6FF0546B4F1FF3F02D0044B1B7860
:101BB8001C44FFF7EDFF401BA042FAD338BD00BF1D
:101BC80008000020002808DB0901C9B200F16040C4
:101BD80000F5614080F80013704700F00F0009011C
:101BE800C9B2014B1954704714ED00E000B500F07C
:101BF8000700C0F1070CBCF1040F28BF4FF0040C1C
:101C0800031D062B0FD9C31E4FF0FF3E0EFA0CF032
:101C180021EA000199400EFA03FE22EA0E0241EA87
:101C280002005DF804FB0023EEE70000074AD368D2
:101C380023F4E0631B041B0C000200F4E060034380
:101C480043F0BF6343F40033D360704700ED00E016
:101C580010B50446054BD868C0F30220FFF7C6FF4D
:101C680001462046FFF7AEFF10BD00BF00ED00E0C3
:101C7800002807DB00F01F02400901239340024AB5
:101C880042F82030704700BF00E100E00138B0F1B1
:101C9800807F0BD24FF0E0235861054AF02182F88B
:101CA80023100020986107221A61704701207047AD
:101CB80000ED00E0002838D010B4024601681C4B43
:101CC800994227D81B4B0B441B48A0FB03031B0955
:101CD8009B001364194BD363022382F821300868F0
:101CE8006FF30D10536894682343D4682343146931
:101CF80023435469234394692343D4692343034307
:101D08000B6000209063012382F8213082F82000C4
:101D180010BC70470A4B0B440748A0FB03031B0980
:101D28009B001364074BD363D6E70120704700BFBD
:101D380007040240F8FFFDBFCDCCCCCC0000024028
:101D4800F8FBFDBF00040240034690F82120D2B200
:101D5800022A06D004228263002280F82020012073
:101D6800704701680A6822F00E020A6001680A6872
:101D780022F001020A60026CC06B012101FA02F232
:101D8800426083F82110002083F82000704700008B
:101D980008B590F82130DBB2022B03D0042383630B
:101DA800012008BD0268136823F00E03136002685F
:101DB800136823F00103136003684C4A93424ED919
:101DC800783A934224D01432934230D0143293425A
:101DD8002FD0143293422FD0143293422FD0143282
:101DE80093422FD0143293422FD002F5627293425D
:101DF8002ED0143293422DD0143293422CD0143268
:101E0800934202D04FF4803203E04FF4805200E056
:101E18000122374B5A60012380F82130002380F8D3
:101E28002030436B002B5ED098470020B9E7102282
:101E3800EFE74FF48072ECE74FF48052E9E74FF494
:101E48008032E6E74FF48012E3E74FF08072E0E774
:101E58000122DEE71022DCE74FF48072D9E7254A39
:101E6800934224D01432934225D01432934224D082
:101E78001432934224D01432934224D01432934221
:101E880024D01432934224D002F56272934223D0B4
:101E98001432934222D01432934221D01432934206
:101EA80002D04FF4803203E04FF4805200E0012268
:101EB800114B5A60AFE71022FAE74FF48072F7E748
:101EC8004FF48052F4E74FF48032F1E74FF4801278
:101ED800EEE74FF08072EBE70122E9E71022E7E72F
:101EE8004FF48072E4E700205BE700BF8000024007
:101EF80000040240080002400000024038B5C36BED
:101F08001A6804682568016C04238B40134200F0AA
:101F18009B8015F0040F00F09780236813F0200FC2
:101F280003D1236823F00403236003689A4A934289
:101F380046D9783A934224D01432934228D01432A6
:101F4800934227D01432934227D01432934227D099
:101F58001432934227D01432934227D002F562728A
:101F6800934226D01432934225D01432934224D07F
:101F78001432934202D04FF4802203E04FF480429F
:101F880000E00422854B5A60C36A03B1984738BD04
:101F98004022F7E74FF48062F4E74FF48042F1E71C
:101FA8004FF48022EEE74FF48002EBE74FF08062B7
:101FB800E8E70422E6E74022E4E74FF48062E1E73D
:101FC800774A934224D01432934225D01432934254
:101FD80024D01432934224D01432934224D01432A1
:101FE800934224D01432934224D002F56272934271
:101FF80023D01432934222D01432934221D0143287
:10200800934202D04FF4802203E04FF4804200E074
:102018000422644B5A60B7E74022FAE74FF4806223
:10202800F7E74FF48042F4E74FF48022F1E74FF4EA
:102038008002EEE74FF08062EBE70422E9E74022F6
:10204800E7E74FF48062E4E702238B40134200F095
:10205800AB8015F0020F00F0A780236813F0200F63
:1020680006D1236823F00A032360012380F8213076
:102078000368494A93424BD9783A934224D01432A0
:1020880093422DD0143293422CD0143293422CD048
:10209800143293422CD0143293422CD014329342EF
:1020A8002CD002F5627293422BD0143293422AD07C
:1020B8001432934229D01432934202D04FF40032A2
:1020C80003E04FF4005200E00222344B5A60002330
:1020D80080F82030836A002B3FF459AF984756E7C1
:1020E8002022F2E74FF40072EFE74FF40052ECE7DA
:1020F8004FF40032E9E74FF40012E6E74FF00072C0
:10210800E3E70222E1E72022DFE74FF40072DCE791
:10211800234A934224D01432934225D01432934256
:1021280024D01432934224D01432934224D014324F
:10213800934224D01432934224D002F5627293421F
:1021480023D01432934222D01432934221D0143235
:10215800934202D04FF4003203E04FF4005200E003
:102168000222104B5A60B2E72022FAE74FF40072BD
:10217800F7E74FF40052F4E74FF40032F1E74FF479
:102188000012EEE74FF00072EBE70222E9E72022A7
:10219800E7E74FF40072E4E78000024000040240E1
:1021A800080002400000024008238B4013423FF41D
:1021B800EEAE15F0080F3FF4EAAE236823F00E03E5
:1021C8002360026CC16B012303FA02F24A60836345
:1021D80080F82130002380F82030036B002B3FF477
:1021E800D6AE9847D3E600BF70B582B00024A446A7
:1021F800ABE0854DAB4214D00CD8A5F58015AB42A9
:102208000FD005F57025AB420BD0A5F58015AB4274
:1022180010D106E07D4DAB4203D005F58035AB42C9
:1022280008D18B68002B5AD0012B53D04261082467
:1022380000E0CC68BEF1FF0F53D806464FEA8C0287
:1022480033680F25954023EA050304FA02F2134385
:1022580033604B6813F0805F75D06D4B9A6942F01C
:1022680001029A619B6903F001030193019B4FEA04
:102278009C02951C674B53F825600CF00305AD00D4
:102288000F23AB4026EA0306634B984230D003F590
:102298008063984200F0968003F58063984200F0CE
:1022A800938003F58063984200F0908003F5806383
:1022B800984200F08D8003F58063984216D006237B
:1022C80017E0CC680434B5E7CC680834B2E7CC68CA
:1022D8000C34AFE702610824ACE70024AAE7042421
:1022E800A8E7061DACF108029200A9E7052300E063
:1022F8000023AB4033430232464D45F822304B6849
:1023080013F4801F66D0454A936843EA0E0393602E
:102318004B6813F4001F63D0404AD36843EA0E03A6
:10232800D3604B6813F4003F60D03C4A536843EADB
:102338000E0353604B6813F4803F5DD0374A13682F
:1023480043EA0E0313600CF1010C0B6833FA0CF22C
:1023580058D0012202FA0CF203EA020E32EA030311
:10236800F1D14B68122B3FF644AF122B3FF662AF08
:1023780001A555F823F000BF2B2200083B220008D6
:10238800D1220008E32200083D2200083D2200086F
:102398003D2200083D2200083D2200083D22000899
:1023A8003D2200083D2200083D2200083D22000889
:1023B8003D2200083D2200083D220008CB220008EB
:1023C800D7220008012394E7022392E7032390E72A
:1023D80004238EE7114A936823EA0E03936097E774
:1023E8000E4AD36823EA0E03D3609AE70B4A536870
:1023F80023EA0E0353609DE7084A136823EA0E0395
:102408001360A0E702B070BD000022100000311078
:102418000010024000000140000801400004014093
:102428008368194201D001207047002070470AB123
:1024380001617047090401617047C36801EA03023A
:1024480021EA030141EA02410161704708B5054BE1
:102458005B69034200D108BD024B5861FEF724FDB9
:10246800F9E700BF0004014082B0084B1B68084A26
:10247800A2FB03235B0A00FB03F3019300BF019B4C
:102488005A1E0192002BF9D102B0704704000020B7
:10249800D34D6210002800F0F18170B582B0044677
:1024A800036813F0010F2CD0994B5B6803F00C0301
:1024B800042B1DD0964B5B6803F00C03082B12D03D
:1024C8006368B3F5803F41D0002B55D103F18043B9
:1024D80003F504331A6822F480321A601A6822F469
:1024E80080221A6037E08A4B5B6813F4803FE7D09C
:1024F800874B1B6813F4003F03D06368002B00F080
:10250800BF81236813F0020F75D0814B5B6813F00D
:102518000C0F5FD07E4B5B6803F00C03082B54D084
:102528002369002B00F08A807A4B01221A60FFF79A
:102538002FFB0546764B1B6813F0020F75D1FFF78A
:1025480027FB401B0228F5D903209EE1704A136837
:1025580043F480331360636843B3FFF719FB054600
:102568006B4B1B6813F4003FCBD1FFF711FB401BEB
:102578006428F5D9032088E1B3F5A02F09D0644B6E
:102588001A6822F480321A601A6822F480221A60CB
:10259800E1E703F18043A3F53C331A6842F4802253
:1025A8001A601A6842F480321A60D4E7FFF7F0FA2A
:1025B8000546574B1B6813F4003FA2D0FFF7E8FA13
:1025C800401B6428F5D903205FE1514B5B6813F485
:1025D800803FA5D14E4B1B6813F0020F03D023692F
:1025E800012B40F04F814A4A136823F0F8036169D0
:1025F80043EAC1031360236813F0080F33D0A369BB
:10260800002B5CD0434B0122C3F88024FFF7C0FAAB
:1026180005463F4B5B6A13F0020F21D1FFF7B8FA6A
:10262800401B0228F5D903202FE1394A136823F00B
:10263800F803616943EAC1031360DCE7354B002204
:102648001A60FFF7A5FA0546314B1B6813F0020F15
:10265800D1D0FFF79DFA401B0228F5D9032014E1D9
:102668000120FFF701FF236813F0040F00F09680A4
:10267800274BDB6913F0805F34D1254BDA6942F0D0
:102688008052DA61DB6903F080530193019B0125D5
:10269800214B1B6813F4807F26D0E368012B3DD0C3
:1026A800002B53D103F1804303F504331A6A22F057
:1026B80001021A621A6A22F004021A6233E0154B08
:1026C8000022C3F88024FFF763FA0546104B5B6AC3
:1026D80013F0020FC7D0FFF75BFA401B0228F5D9A9
:1026E8000320D2E00025D3E70B4A136843F4807334
:1026F8001360FFF74DFA0646074B1B6813F4807FFB
:10270800CBD1FFF745FA801B6428F5D90320BCE03C
:102718000010024000004242007000405F4A136A05
:1027280043F001031362E36833B3FFF731FA064657
:102738005A4B1B6A13F0020F2FD1FFF729FA801B9F
:1027480041F288339842F3D903209EE0052B09D043
:10275800524B1A6A22F001021A621A6A22F0040223
:102768001A62E0E74D4B1A6A42F004021A621A6ACA
:1027780042F001021A62D6E7FFF70AFA0646474B0B
:102788001B6A13F0020F08D0FFF702FA801B41F210
:1027980088339842F3D9032077E0E5B9E369002B41
:1027A80072D03E4A526802F00C02082A56D0022B18
:1027B80017D03B4B00221A66FFF7EAF90446374B5D
:1027C8001B6813F0007F47D0FFF7E2F9001B0228CF
:1027D800F5D9032059E0314AD36923F08053D361F6
:1027E800DCE72F4B00221A66FFF7D2F905462B4B80
:1027F8001B6813F0007F06D0FFF7CAF9401B0228B8
:10280800F5D9032041E0236AB3F5803F1AD0234964
:102818004B6823F47413226A606A024313434B60C3
:102828001F4B01221A66FFF7B3F904461B4B1B68BE
:1028380013F0007F0ED1FFF7ABF9001B0228F5D982
:10284800032022E0154A536823F40033A1680B43A0
:102858005360DCE7002018E0002016E0012B16D0BA
:102868000E4B5B6803F48031226A914211D103F464
:102878007013626A93420ED1002006E0012070476F
:10288800012002E0012000E0002002B070BD01201C
:10289800FBE70120F9E70120F7E700BF001002403D
:1028A800000042420F4B5B6803F00C02082A01D07B
:1028B8000D487047C3F383420C49885C13F4803F8A
:1028C8000BD0084B5B68C3F34043094AD35C064A04
:1028D80002FB00F0B0FBF3F07047064B03FB00F07F
:1028E800704700BF0010024000127A006898000884
:1028F8006498000800093D00002800F0A08070B529
:102908000D460446524B1B6803F007038B420BD25B
:102918004F4A136823F007030B431360136803F04F
:1029280007038B4240F08D80236813F0020F17D005
:1029380013F0040F04D0474A536843F4E06353602C
:10294800236813F0080F04D0424A536843F46053D5
:102958005360404A536823F0F003A1680B43536067
:10296800236813F0010F31D06368012B20D0022BAC
:1029780025D0384A126812F0020F64D035494A68E7
:1029880022F0030213434B60FFF702F90646314B6E
:102998005B6803F00C036268B3EB820F16D0FFF795
:1029A800F7F8801B41F288339842F0D9032045E0BC
:1029B800284A126812F4003FE0D101203EE0254A7F
:1029C800126812F0007FD9D1012037E0204B1B6834
:1029D80003F00703AB420AD91D4A136823F0070323
:1029E8002B431360136803F00703AB422DD1236810
:1029F80013F0040F06D0174A536823F4E063E16824
:102A08000B435360236813F0080F07D0114A53682B
:102A180023F46053216943EAC1035360FFF742FF7F
:102A28000C4B5B68C3F303130B4AD35CD8400B4BC6
:102A380018600B4B1868FFF767F8002070BD01207D
:102A480070470120FAE70120F8E70120F6E700BF08
:102A580000200240001002405498000804000020A2
:102A68000C000020014B1868704700BF04000020CC
:102A780008B5FFF7F7FF044B5B68C3F30223034A6B
:102A8800D35CD84008BD00BF001002404C98000835
:102A980008B5FFF7E7FF044B5B68C3F3C223034A9B
:102AA800D35CD84008BD00BF001002404C98000815
:102AB80090F83D30DBB2012B2AD1022380F83D305B
:102AC8000368154A934218D002F50062934214D065
:102AD800B3F1804F11D0A2F5983293420DD002F590
:102AE8008062934209D002F58062934205D01A6849
:102AF80042F001021A60002070479A6802F007024B
:102B0800062A07D01A6842F001021A6000207047AE
:102B18000120704700207047002C01400368196AA3
:102B280041F21112114208D1196A40F2444211428D
:102B380003D11A6822F001021A60012380F83D309F
:102B48000020704790F83D30DBB2012B2FD10223D3
:102B580080F83D300268D36843F00103D36003680E
:102B6800154A934218D002F50062934214D0B3F18B
:102B7800804F11D0A2F5983293420DD002F58062B1
:102B8800934209D002F58062934205D01A6842F058
:102B980001021A60002070479A6802F00702062AAC
:102BA80007D01A6842F001021A600020704701201D
:102BB80070470020704700BF002C014070477047E5
:102BC8007047704770B504460368DE681D6915F0E4
:102BD800020F10D016F0020F0DD06FF002021A612A
:102BE8000123037703689B6913F0030F5ED0FFF797
:102BF800E6FF0023237715F0040F12D016F0040F18
:102C08000FD023686FF004021A6102232377236828
:102C18009B6913F4407F4FD02046FFF7D0FF002375
:102C2800237715F0080F12D016F0080F0FD023687D
:102C38006FF008021A61042323772368DB6913F015
:102C4800030F40D02046FFF7BAFF0023237715F083
:102C5800100F12D016F0100F0FD023686FF010026B
:102C68001A61082323772368DB6913F4407F31D086
:102C78002046FFF7A4FF0023237715F0010F02D0A9
:102C880016F0010F2DD115F0800F02D016F0800F2D
:102C98002FD115F0400F02D016F0400F31D115F0AA
:102CA800200F02D016F0200F33D170BDFFF786FF3A
:102CB8002046FFF785FF9CE72046FFF77FFF204669
:102CC800FFF77EFFABE72046FFF778FF2046FFF7C8
:102CD80077FFBAE72046FFF771FF2046FFF770FF3E
:102CE800C9E723686FF001021A612046FEF758F918
:102CF800C9E723686FF080021A61204600F0D1F816
:102D0800C7E723686FF040021A612046FFF759FFB2
:102D1800C5E723686FF020021A61204600F0C0F86A
:102D2800C3E700000368284A904212D002F5006207
:102D380090420ED0B0F1804F0BD0A2F5983290425D
:102D480007D002F58062904203D002F5806290427B
:102D580003D123F070034A6813431B4A904212D0F0
:102D680002F5006290420ED0B0F1804F0BD0A2F570
:102D78009832904207D002F58062904203D002F563
:102D88008062904203D123F44073CA68134323F04E
:102D980080034A69134303608B68C3620B688362CC
:102DA800094B984203D003F50063984201D10B699F
:102DB800036301234361036913F0010F03D003691F
:102DC80023F0010303617047002C014040B310B5A4
:102DD800044690F83D30F3B1022384F83D30214693
:102DE80051F8040BFFF79EFF012384F8463084F85E
:102DF8003E3084F83F3084F8403084F8413084F81D
:102E0800423084F8433084F8443084F8453084F8FC
:102E18003D30002010BD80F83C30FEF79FFDDBE719
:102E28000120704790F83C20012A34D010B40346A2
:102E3800012280F83C20022280F83D200268506878
:102E4800946820F0700C086840EA0C0050601A681A
:102E58001248824212D000F5006082420ED0B2F1D0
:102E6800804F0BD0A0F59830824207D000F58060E3
:102E7800824203D000F58060824204D124F08004AD
:102E8800496821439160012283F83D20002083F89E
:102E98003C0010BC70470220704700BF002C014066
:102EA80070477047026802F10C0353E8003F23F4AF
:102EB80090730C3242E800310029F3D1026802F124
:102EC800140353E8003F23F00103143242E80031B1
:102ED8000029F3D1036B012B05D0202380F8423061
:102EE800002303637047026802F10C0353E8003FB4
:102EF80023F010030C3242E800310029F3D1ECE74B
:102F080090F84130DBB2212B01D002207047836852
:102F1800B3F5805F17D0036A5A1C02621A780368F7
:102F28005A60C38C9BB2013B9BB2C3844BB9026805
:102F3800D36823F08003D3600268D36843F040036A
:102F4800D360002070470369002BE4D1036A1B8813
:102F58000268C3F308035360036A02330362E0E7BD
:102F680010B504460268136923F44053C1680B4343
:102F7800136183680269134342691A430168CB6885
:102F880023F4B05323F00C031343CB600268536956
:102F980023F4407381690B4353610268134B9A42CF
:102FA80020D0FFF765FD024602EB820202EB8202A7
:102FB80063689B00B2FBF3F20D48A0FB023149099C
:102FC800642303FB11231B013233A0FB03035B09BA
:102FD80003F0F00202EB011203F00F03216813441F
:102FE8008B6010BDFFF754FD0246DDE70038014055
:102FF8001F85EB512DE9F04383B005460E46174671
:103008009946DDF828802B681C6836EA04040CBF52
:1030180001240024BC4228D1B8F1FF3FF3D0FEF7C9
:10302800B7FDA0EB0900404523D8B8F1000F22D026
:103038002B68DA6812F0040FE5D0802EE3D0402E1A
:10304800E1D01A6812F0080FDDD0002401941A6844
:1030580001925B680193019B2846FFF723FF082331
:103068006B6485F84040012000E0002003B0BDE813
:10307800F0830320FAE70320F8E760B310B50446AD
:1030880090F8413013B3242384F841302268D36880
:1030980023F40053D3602046FFF762FF22681369C8
:1030A80023F4904313612268536923F02A03536180
:1030B8002268D36843F40053D3600020606420235F
:1030C80084F8413084F84230606310BD80F84030A5
:1030D800FEF796FCD7E7012070472DE9F04182B052
:1030E8001E4690F84130DBB2202B56D104460D46DF
:1030F8009046002955D00AB901204FE000234364C7
:10310800212380F84130FEF743FD0746A4F82480C8
:10311800A4F82680A368B3F5805F02D04FF00008BA
:1031280014E023692BB34FF000080FE0202384F844
:103138004130032032E038F8023B2268C3F3080329
:103148005360E28C92B2013A92B2E284E38C9BB271
:1031580093B100963B46002280212046FFF74AFFA4
:103168000028E3D1002DE6D015F8012B23685A601A
:10317800E7E7A8460025E9E700963B4600224021FC
:103188002046FFF737FF18B9202384F8413005E0BF
:10319800202384F84130032000E0022002B0BDE87B
:1031A800F0810120FAE7704708B50168CA6822F083
:1031B8004002CA60202280F84120FFF7F4FF002077
:1031C80008BD7047704708B5406A0023C385C384AB
:1031D800FFF7F8FF08BD704790F84230DBB2222BAA
:1031E80069D18368B3F5805F4FD0826AB3F5805F99
:1031F80004D0002B56D10369002B53D103685B68B8
:103208001370836A01338362C38D9BB2013B9BB207
:10321800C385002B51D100B583B00268D36823F071
:103228002003D3600268D36823F48073D3600268F4
:10323800536923F001035361202380F842300023AF
:103248004363036B012B33D100230363026802F14C
:103258000C0353E8003F23F010030C3242E800311E
:103268000029F3D103681A6812F0100F06D0002263
:1032780001921A6801925B680193019B818DFFF7A7
:10328800AAFF002003B05DF804FB0269002AACD154
:10329800826A03685B68C3F308031380836A023396
:1032A8008362B1E703685B6803F07F031370A8E7E4
:1032B800FFF787FFE5E7022070470020704700000E
:1032C80010B582B0044602681368D068516913F0DB
:1032D8000F0F09D113F0200F0CD010F0200F09D0D8
:1032E8002046FFF779FF16E011F0010115D110F41F
:1032F800907F12D1216B012979D013F0800F03D070
:1033080010F0800F40F0138113F0400F03D010F03D
:10331800400F40F0108102B010BD13F0010F06D02D
:1033280010F4807F03D0626C42F00102626413F0F3
:10333800040F04D019B1626C42F00202626413F007
:10334800020F04D019B1626C42F00402626413F0F7
:10335800080F07D010F0200F00D119B1626C42F0AD
:1033680008026264626C002AD5D013F0200F02D0E4
:1033780010F0200F29D123685B6903F04003626CC9
:1033880012F0080F00D163B32046FFF78BFD2368C6
:103398005B6913F0400F20D0226802F1140353E850
:1033A800003F23F04003143242E800310029F3D1F2
:1033B800E36B73B1624A5A63E06BFEF7E9FC0028DD
:1033C800A9D0E06B436B9847A5E72046FFF704FFB9
:1033D800D1E72046FFF7F6FE9DE72046FFF7F2FE0D
:1033E80099E72046FFF7EEFE0023636493E713F0A6
:1033F800100F82D010F0100F3FF47FAF002301931D
:103408001368019353680193019B536913F0400FAC
:1034180051D0E26B13685B689BB2002B3FF47BAF23
:10342800A18D99427FF677AFE3859369202B37D03A
:10343800226802F10C0353E8003F23F480730C3236
:1034480042E800310029F3D1226802F1140353E85D
:10345800003F23F00103143242E800310029F3D180
:10346800226802F1140353E8003F23F040031432AA
:1034780042E800310029F3D1202384F842300023A8
:103488002363226802F10C0353E8003F23F0100382
:103498000C3242E800310029F3D1E06BFEF754FC0E
:1034A80002236363A18DE38D9BB2C91A89B22046BA
:1034B800FFF791FE2FE7A18DE38D9BB2C91A89B260
:1034C800E38D9BB2002B3FF426AF00293FF423AFD6
:1034D800226802F10C0353E8003F23F490730C3286
:1034E80042E800300028F3D1226802F1140353E8BF
:1034F800003F23F00103143242E800300028F3D1E2
:10350800202384F8423000232363226802F10C034D
:1035180053E8003F23F010030C3242E80030002843
:10352800F3D1022363632046FFF755FEF3E62046F6
:10353800FFF7E6FCEFE62046FFF736FEEBE600BFB6
:10354800CF310008024A0349034800F0C9B800BF58
:1035580010000020B95D0008200000200C4B4168D5
:1035680010B59942044601D002F022FCA168094B2B
:10357800994202D0204602F01BFCE168064B9942B2
:1035880004D02046BDE8104002F012BC10BD00BFB8
:1035980040080020A8080020100900202DE9F84361
:1035A80000250423304C314A3149DFF8C890DFF850
:1035B800C880324F324E116004F15C00294608225F
:1035C800C4E90335C4E90055C4E90555A560656635
:1035D80000F02AF904F15800C4E90749C4E9098749
:1035E800E66200F0F3F9274B2946082204F1C400EB
:1035F8006367C4E91A55C4E91E552567C4F8CC5059
:10360800C4F8805000F010F904F1680304F1C00018
:10361800C4F88430C4E92298C4E9247600F0D6F9C5
:10362800194B294604F596700822C4F8DC30C4E921
:103638003455C4E93855C4F8D850C4F83451C4F8DE
:10364800E85000F0F1F804F1D003C4E93D87C4F86C
:10365800F09004F59470C4F8FC60C4F8EC30BDE850
:10366800F84300F0B3B900BF4008002078090020F3
:103678004D3500082D3700085137000891370008EC
:10368800B5370008090001001200020010B5044611
:103698000A4800F09FF9636B23B9094B094A1B6874
:1036A800626323B1BDE81040044800F095B9FFF704
:1036B80075FFBDE81040014800F08EB98809002068
:1036C8007809002065350008014800F083B900BF7B
:1036D80088090020014800F07FB900BF8809002050
:1036E8002DE9F8434FF0000980460F461646D6E903
:1036F8000154013D10D4A389012B08D9B4F90E3027
:10370800013304D021464046B84749EA0009013D43
:103718006B1C04F16804EED13668002EE7D14846E8
:10372800BDE8F88310B50C46B1F90E1000F0F4F8B6
:10373800002803DB236D0344236510BDA38923F40C
:103748008053A38110BD00BF2DE9F0410C46B1F9AB
:103758000C101F46CB05054616460BD421F48051A4
:10376800A1813B4632462846B4F90E10BDE8F04127
:1037780000F0E8B8B4F90E100223002200F0B6F801
:10378800B4F90C10EAE700BF10B50C46B1F90E10F9
:1037980000F0ACF8B4F90C30421C0EBF23F480538F
:1037A80043F480532065A38110BD00BFB1F90E100A
:1037B80000F08AB830B51B4C002924689BB02BDB7D
:1037C8004FF00005009004904FF402701995ADF881
:1037D8000C004FF6FF7511D0013902910591204672
:1037E8006946ADF80E5000F021FD421C01DA8B232A
:1037F80023600022009B1A701BB030BD0291059116
:1038080020466946ADF80E5000F010FD431C01DA61
:103818008B2323601BB030BD8B234FF0FF30236018
:10382800F8E700BF1C00002070B5860747D0541E7B
:10383800002A3ED00346CAB201E0013C39D303F85E
:10384800012B9D07F9D1032C2CD9CDB205EB052509
:103858000F2C1A4605EB054534D9A4F1100C2CF0B1
:103868000F0603F1100EB6444FEA1C1CC2E90055BE
:10387800C2E9025510327245F8D10CF1010214F078
:103888000C0F03EB021204F00F0C13D0ACF104037D
:1038980023F003030433134442F8045B9342FBD13F
:1038A8000CF003042CB1C9B21C4403F8011BA34259
:1038B800FBD170BD64461346002CF4D1F9E70346EA
:1038C8001446C0E7A446E1E7002238B5064D044691
:1038D80008462A60FDF7C2FF431C00D038BD2B689C
:1038E800002BFBD0236038BD7C09002038B50C467E
:1038F800114600228446074D20462A601A4664462F
:10390800FDF7B6FF431C00D038BD2B68002BFBD059
:10391800236038BD7C09002038B50C4611460022CA
:103928008446074D20462A601A466446FDF778FF0C
:10393800431C00D038BD2B68002BFBD0236038BD5A
:103948007C09002038B50C46114600228446074DF4
:1039580020462A601A466446FDF772FF431C00D0D1
:1039680038BD2B68002BFBD0236038BD7C090020B4
:10397800014B1868704700BF1C00002070B50F4B42
:103988000F4DAB42A3EB050607D00024B61055F83F
:10399800043B01349847A642F9D805F05DFE094D6D
:1039A800094B5E1BAB424FEAA60606D0002455F829
:1039B800043B01349847A642F9D870BDC49A000860
:1039C800C49A0008C49A0008CC9A0008704700BF3F
:1039D800704700BF704700BF704700BF024B13B16C
:1039E800024800F005B87047000000009960000820
:1039F800002301461A46184602F01CBC2DE9F8437C
:103A080006460820894602F057FB0546DFF89880ED
:103A1800304600F0FFFBD8F808305F6827F003074E
:103A2800A7F11104A4EB09042C44B4FBF5F4013C00
:103A380005FB04F4A54208DC0021304602F016FB21
:103A4800D8F808303B44984205D0304600F0E8FBEF
:103A58000020BDE8F8833046614202F007FB0130E0
:103A68000FD0124AD8F808303F1B47F001075F60B3
:103A7800136830461B1B136000F0D2FB0120BDE821
:103A8800F8830021304602F0F1FAD8F80820831AAA
:103A98000F2BDADD43F001035360054B03491B6824
:103AA800C01A0860D1E700BF70010020900900200B
:103AB8006401002000297CD0F8B50C46064600F0C9
:103AC800A9FB54F8043C764FA4F1080523F0010142
:103AD8006818D7F808C04268844522F0030200F04D
:103AE8008380DB07426000EB020C33D454F8084CA7
:103AF800DCF804302D1B2144AC6807F1080C644540
:103B080003F0010364D0D5F80CE0C4F80CE0CEF85B
:103B18000840002B00F0818041F001036B600160D8
:103B2800B1F5007F22D20122CB0849098A40796881
:103B380001330A437A6057F8331007EBC302083A97
:103B4800C5E9021247F83350CD603046BDE8F84069
:103B580000F066BBDCF80430DB072BD541F001032D
:103B6800B1F5007F44F8043C0160DCD3B1F5206F67
:103B78004FEA512353D28B0903F1390003F138027C
:103B8800C300F818FB580838984203D161E09B68D5
:103B9800984204D05A6822F003028A42F7D8D868BB
:103BA800C5E9023085603046DD60BDE8F84000F0C8
:103BB80037BB7047114407F1080C836863453FD051
:103BC800C268DA60936041F001036B606950A7E74F
:103BD800002B5FD10A44D0E90213CB60996042F010
:103BE80001036B60AA50B0E70A44D90707D454F818
:103BF800083CED1A1A44D5E90213CB60996042F0EB
:103C080001036B60274BBD601B6893429DD8264B10
:103C180030461968FFF7F2FE97E71144CDE7142BF9
:103C280008D9542B1DD80B0B03F16F0003F16E025A
:103C3800C300A6E703F15C0003F15B02C300A0E741
:103C480041F00103C7E90455C5E902CC6B6069502E
:103C58007BE70121921001FA02F279680A437A603F
:103C68009EE7B3F5AA7F06D8CB0B03F1780003F1E2
:103C78007702C30085E740F25452934206D88B0C72
:103C880003F17D0003F17C02C3007AE74FF47E73F1
:103C98007E2276E741F001036B60016055E700BFC3
:103CA8007001002068010020C00900202DE9F04FB4
:103CB80001F10B05162D064683B024D8102900F211
:103CC800AD8000F0A7FA102518234FF0020CB84F6A
:103CD8003B445C68A3F10802944200F01D81304621
:103CE8006368E268A16823F00303CA602344916013
:103CF8005A68083442F001025A6000F091FA2046EE
:103D080003B0BDE8F08F35F0070500F18780A942C0
:103D180000F2848000F07EFAB5F5FC7FC0F06F8178
:103D28006B0A7FD0042B00F21E81AB0903F1390C1A
:103D380003F1380E4FEACC009D4F384444680838E8
:103D4800A04207D10DE0002AE16880F2DF808842B6
:103D580007D00C46636823F003035A1B0F2AF2DDD1
:103D6800F446DFF850823C69444500F0BC80636843
:103D780023F00309A9EB05030F2B00F34581002B62
:103D8800C7E9048880F22F81B9F5007FD7F804E0ED
:103D980080F0C98001234FEAD9014FEA5919194423
:103DA80003FA09F357F831204EEA030E07EBC10373
:103DB800083BA260E360C7F804E047F83140D460EC
:103DC80001204FEAAC039840704532D810EA0E0F34
:103DD80007D12CF0030C400010EA0E0F0CF1040C74
:103DE800F9D007EBCC0AD646E146DEF80C300BE0FA
:103DF80059681C4621F003014A1B0F2ADB6800F3AF
:103E0800BF80002A80F2E2809E45F1D109F10109C4
:103E180019F0030F0EF1080EE7D11FE10C233360F0
:103E280000246CE74FF400704FF0400C4FF03F0E49
:103E380082E7BC68636823F00309A94503D3A9EBAB
:103E480005030F2B52DC5C4B08201B6803F110089C
:103E580004EB0903009302F02FF9584A83461368CC
:103E6800A844013305D008F1FF388044434203EAEF
:103E780008084146304602F0F9F8B0F1FF3F8246A3
:103E88004E4A00F0DC8004EB0903834200F2D5803F
:103E98004B4B0BF1FF31186840448446186040F0E2
:103EA800FB801AEA010F40F0F780D7F808A0C84451
:103EB80048F00102CAF804205446424B196881426E
:103EC80038BF1860404B1968814238BF186022F02B
:103ED8000308A845A8EB050301D30F2B06DC3046E1
:103EE80000F09EF99CE7D7F804E069E7621943F00F
:103EF800010345F0010565603046BA600834536037
:103F080000F08EF9204603B0BDE8F08FA268304675
:103F1800D16023448A60EBE6DC68A3427FF4DFAE1D
:103F28000CF1020C1DE7B9F5206F4FEA59227DD339
:103F3800142A00F2118102F15C03DB005B32F918EC
:103F4800FB580839994203D1ECE09B68994204D0A8
:103F58005A6822F003024A45F7D8D968C4E9023101
:103F68008C60DC602CE7142B6CD9542B00F2FD809C
:103F78002B0B03F16F0C03F16E0E4FEACC00DBE65E
:103F8800D4F808C03046661945F001056560CCF8DC
:103F98000C30C3F808C042F00103C7E90466C6E95B
:103FA80002887360625000F03BF90834A7E600BF4E
:103FB8007001002078010020C00900206401002061
:103FC80090090020BC090020B809002021444A6853
:103FD800304642F001024A6054F8082FD3609A60D4
:103FE80000F01EF98BE6A144D9F80430304643F0BE
:103FF8000103C9F8043000F013F908347FE64FEAEA
:10400800D50C05F1080362E6621943F0010145F099
:10401800010565603046C7E90422C2E9028851609B
:1040280044F8093000F0FCF8083468E64FEA9912C1
:1040380002F13903DB00383281E7BC4224D0BC6886
:10404800626844E703F15C0C03F15B0E4FEACC00B5
:1040580072E65AF80839534540F0D8801CF0030F2F
:104068000CF1FF3CF5D17B6823EA00037B6040003C
:1040780098423FF6DEAE18B9DBE6400009F10409C4
:104088001842FAD0CC46ACE6614B0BF1FF31186808
:1040980008EB000CC3F800C01068013070D004EBC6
:1040A8000902AAEB020262441A601AF00702CDE97B
:1040B800002340D0C2F108029244D04408EA01002B
:1040C8005A44121A02EA010B5946304601F0CEFF53
:1040D800421C019B71D0A0EB0A0000EB0B0818688A
:1040E80048F001025844BC42C7F808A01860CAF852
:1040F80004203FF4E1AEB9F10F0F44D94FF0050C9D
:104108006168A9F10C0222F0070201F001011143D4
:1041180061600F2A04EB0201C1E901CC55D8DAF835
:104128000420C9E60120921000FA02F24EEA020EBB
:10413800C7F804E012E70AEB08020A40ABEB0202F8
:1041480002EA010B5946304601F090FF431C019BDF
:10415800C1D1DDF800B0C2E7542A18D84FEA1932A5
:1041680002F16F03DB006E32E9E6B3F5AA7F18D8D7
:10417800EB0B03F1780C03F1770E4FEACC00DBE58B
:10418800C2F800A091E70123CAF80430A7E6B2F507
:10419800AA7F25D84FEAD93202F17803DB007732BB
:1041A800CDE640F25452934225D8AB0C03F17D0C76
:1041B80003F17C0E4FEACC00BEE5009A4FF0000BED
:1041C800083A9044A8EB0A0889E7304604F1080148
:1041D8000093FFF76FFC009BD7F808A018689EE7CC
:1041E80040F254539A420DD84FEA994202F17D03A6
:1041F800DB007C32A3E64FF47E704FF07F0C4FF06B
:104208007E0E99E54FF47E737E2298E67B682EE752
:10421800900900200148FFF7DDBB00BF800900209E
:104228000148FFF7D9BB00BF800900202DE9F04FF6
:10423800DDB00C4691460D910F93834601F012FFB5
:10424800036818461A9301F091FF0822189000217C
:104258002CA8FFF7E9FAA389180603D52369002BD0
:1042680000F01587002300249E46CDE93133002352
:1042780033AACDE91634DA4614464D46CDE91BEE8D
:104288003092CDF864E0CDF880E0CDF874E0CDF858
:1042980028E0CDF848E02F466E4BD3F8E46001F0F3
:1042A800DBFE0DF1B00C03463A46504628A9CDF87E
:1042B80000C0B047002800F09F80C0F29580289B7E
:1042C800252B01D00744E7E7B7EB0508064640F081
:1042D800978000224FF0FF33934609937B787E1C2A
:1042E8008DF897200B9299460136A9F120035A2B95
:1042F80000F2B280DFE813F0F302B000B000EF0282
:10430800B000B000B000FD02B000B0006A00350295
:10431800B0002702D202B000CE025B005B005B0057
:104328005B005B005B005B005B005B00B000B00003
:10433800B000B000B000B000B0002801B000AA0181
:104348003E02280128012801B000B000B000B000EA
:104358003A02B000B000A802B000B000B000D0012E
:10436800B000BC02B000B0008A06B000B000B000D7
:10437800B000B000B000B000B0002801B000AA0141
:1043880001022801280128012B0201027400B00053
:104398006402B0005502AF066E027400B000D0018E
:1043A8007200AC06B000B000B206B0007200002285
:1043B800A9F1300316F8019B02EB820203EB4202DB
:1043C800A9F13003092BF5D90B928EE70F9B53F80F
:1043D800042B002A0B920F93C0F2B281337882E744
:1043E80033784BF0200B7EE7082200212CA8FFF73A
:1043F8001BFA012007444FE7B7EB0508064610D023
:10440800329BC4E9005843443293319B0133072B54
:10441800319315DC08340A9B43440A93002E7FF439
:1044280058AF329B002B41F05E810D9B9B8903F0B6
:104438004003002B41F080830A985DB0BDE8F08FFF
:1044480050460D9930AA01F087FC0028EDD133AC15
:10445800E1E700BF780500201096B9F1000FE0D021
:10446800012300228DF80C91069343AD8DF8972017
:104478000C93CDE913220E92099211921BF00203BC
:1044880002D00699023106911BF08408329E05D1AC
:104498000B9906980F1A002F00F39B806AB101222E
:1044A8006260319A013601320DF19701072A32967E
:1044B8003192216000F3D883083463B1022363602A
:1044C800319B0236013326AA072B3296319322609C
:1044D80000F3BF830834B8F1800F00F0BF82099B56
:1044E8000C9A9F1A002F00F3F9821BF4807F40F08A
:1044F8001E820C9B25601E446360319B32960133FB
:10450800072B319300F33F8308341BF0040F05D0C9
:104518000B9B069A9D1A002D00F3B383DDE90A323E
:1045280006998A42ACBF9B185B180A93002E40F08C
:104538000883002331930E9B1BB150460E99FFF759
:10454800B9FA33AC109DA6E60F9B1096073323F0FB
:104558000703F3E802670F9327F000431F931E96A3
:104568004FF0FF32DDE91E01B24BCDE91667FCF7CB
:1045780003FB002840F0F484DDE91E014FF0FF3210
:10458800AC4BFCF7DBFA002840F0EA840022002359
:1045980030463946FCF7C8FA002840F0B2879DF843
:1045A800972000210320A44DA44B2BF0800B0E91E3
:1045B8000690B9F1470FD8BF1D46CDE913110991EF
:1045C8000C901191002A3FF459AF069B01330693D2
:1045D80054E7102F319A41F30D82DFF864C2214667
:1045E80030460D9C2E46CDF854C06546219304E014
:1045F800103F102F01F1080116DD10230132103091
:10460800072ACDE931200D604B60F1DD2146504687
:1046180030AA01F0A1FB002840F09B82DDE931209F
:10462800103F102F33A9E8DC35460C460646219B7F
:10463800013215993E44072ACDE931262160676089
:1046480000F381869DF89720083427E70F9BB9F17E
:10465800430F109603F1040603D01BF0100F00F06F
:104668000185082200212EA8FFF7DEF80F9A43AD36
:104678002EAB29465046126803F0E4F9034601338D
:104688000C9001F054820C9B23EAE37306930022FA
:104698000F968DF89720ECE600230F9F109657F899
:1046A800045B8DF89730002D00F00085B9F1530FA9
:1046B80000F094861BF01003119340F08F86099B3D
:1046C800002BC1F21B801A462846119901F002FD01
:1046D8000E90002801F081820E9B11995B1B0C93B0
:1046E80023EAE3734FF07309CDE913119DF897207E
:1046F8000F97099106930E9164E71BF0200F10960F
:104708003ED00F9B073323F007031846596850F82B
:10471800083B0A460F900029C0F2CA83099900296C
:10472800C0F2888253EA02012BF0800740F08382AE
:10473800099A002A40F08482BB460C925CAD64E181
:104748000B9B5B420B9333784BF0040BCBE5337830
:10475800682B03BF73784BF4007B01364BF0400B9A
:10476800C1E52B238DF897303378BCE533784BF0CF
:10477800080BB8E54BF0100B1BF0200F1096C0D1BA
:104788000F9A1BF0100F52F8043B0F9240F0C283AF
:104798001BF0400F00F0BA8343F3C03211461BB23E
:1047A800B9E71BF0200F109600F0C5830F9B0A9AFB
:1047B8001B681A60D2175A600F9B04330F93C1E627
:1047C80033786C2B03BF73784BF0200B01364BF01A
:1047D800100B88E547F630030F9AADF8983052F879
:1047E800043B02210F924FF07809002215481096D9
:1047F8004BF0020719900020099D8DF89700002DB5
:10480800C0F2EC8053EA020027F0800B40F0E5800C
:10481800002D40F0D285002940F0538317F00103A2
:104828000C9300F0718330230DF26F158DF86F3102
:10483800EBE000BFFFFFEF7FA8960008A4960008F2
:1048480088980008B496000810964BF0100B1BF0DF
:10485800200200F012830F9B073323F00703194649
:104868005A6851F8083B0F9100212BF48067C2E782
:1048780010964BF0100717F0200200F00B830F9BE7
:104888000121073323F0070318465A6850F8083BFC
:104898000F90B0E733784BF0800B24E5314611F8E0
:1048A800019BB9F12A0F01F02882A9F13003092BE5
:1048B80098BF002201F2A28011F8019B02EB82024C
:1048C80003EB4202A9F13003092BF5D942EAE2735E
:1048D8000E46099309E533784BF0010B03E59DF883
:1048E80097203378002A7FF4FEAC20228DF8972099
:1048F800F9E4504601F0B6FB436818461D9301F0F1
:1049080035FC20900746504601F0ACFB83681B93AA
:10491800002F3FF463AD1B9A3378002A3FF4E3ACD1
:104928001278002A3FF4DFAC4BF4806BDBE4B9F17A
:10493800650F40F33781DDE9160100220023FCF7FB
:10494800E9F8002800F0D88101236360319B934A7D
:1049580001330136072B32963193226000F33285FA
:104968000834279B129A934280F2C982189B1A9A9C
:104978001E44C4E90023319B32960133072B31933F
:1049880000F37A830834129B5D1E002D7FF7BDADBE
:10499800102D319B40F3EB80DFF804921027DDF8EF
:1049A8003480CDF8549004E00834103D102D40F3C5
:1049B800E08001331036072BC4E90097CDE9313682
:1049C800F2DD4146504630AA01F0C6F9002840F011
:1049D800C080DDE9313633ACE7E75F46012900F0F6
:1049E8002A8102295CAD1ED1199803F00F01415CA0
:1049F8001B0943EA0273120905F8011D53EA020173
:104A0800F3D1BB465CAB5B1B0C93099A0C99002352
:104A18008A42B8BF0A46CDE9133306920E939DF831
:104A280097201193CEE503F00701DB0843EA4273B0
:104A3800D208303153EA0206284605F8011DF2D1A2
:104A4800FB07DED53029DCD03023023805F8013CDD
:104A58005CAB1B1ABB4605460C93D6E70B9B069A24
:104A68009F1A002F7FF73BAD102F319B41F35B80DE
:104A78004B48224631464FF0100806460D9C1590CB
:104A880004E0103F102F02F1080214DD0133103149
:104A9800072BC2E90068CDE93131F2DD21465046E5
:104AA80030AA01F059F9002853D1DDE93131103F1E
:104AB800102F33AAEADC14460E460133159A3E44F9
:104AC800072BCDE931362260676000F3C084099B6B
:104AD8000C9A08349F1A002F7FF707AD304A102F21
:104AE800319B159221DD32464FF010082E460D9D60
:104AF80004E0103F102F04F1080414DD01332849A5
:104B08001032072BC4E90018CDE93132F1DD29460E
:104B1800504630AA01F020F9D8B9DDE93132103F0A
:104B2800102F33ACEADC354616460133159A3E445D
:104B3800072BCDE931362260676000F39281083493
:104B4800D3E450460D9930AA01F006F900283FF445
:104B5800F0ACD3460E9B002B3FF467AC58460E9939
:104B6800FEF7A8FF0D9B9B8903F0400361E40C4A04
:104B78001592159A01332E44072B22606560CDE902
:104B880031367FF7C1AC50460D9930AA01F0E4F8F0
:104B98000028DED1329E33ACB7E400BFE4960008AB
:104BA80078980008129B319F012B06F1010607F146
:104BB800010704F1080940F310810123072FCDE90B
:104BC80031762560636000F38081189B01371A9A5B
:104BD8001E44072FC9E90023CDE9317600F382810D
:104BE80009F10809129B0022DDE916015C1E002369
:104BF800FBF790FF002840F0098101370135264472
:104C0800072FCDE93176C9F80050C9F8044000F300
:104C1800F08009F108091C9B01371E44C9F80430CB
:104C2800072F2AABCDE93176C9F80030ABDC09F1A2
:104C380008046AE45F460A2B72F1000180F02583BC
:104C480030338DF86F310123BB460C930DF26F158D
:104C5800DBE650460D9930AA01F07EF800287FF473
:104C680078AF329E33AC36E450460D9930AA15938E
:104C780001F072F800287FF46CAF329E159B33ACBC
:104C88001BE4102D319B40F33187DFF8CC821027CD
:104C9800DDF83490CDF8548004E0103D102D04F177
:104CA800080415DD01331036072BC4E90087CDE968
:104CB8003136F2DD4946504630AA01F04DF8002859
:104CC8007FF447AFDDE93136103D102D33ACE9DC18
:104CD8000133159A2E44072BC4E90025CDE9313656
:104CE8007FF71CAC50460D9930AA01F035F8002822
:104CF8007FF42FAF329E11E42799002940F33383C4
:104D0800DDE911839845A8BF9846B8F1000F0ADD80
:104D1800319B46440133072BC4E90058329631933E
:104D280000F33E860834119FB8F1000FA8BFA7EB27
:104D38000807002F00F3CB81DDF844901BF4806F47
:104D4800A94440F0EA81279B129A9342C0F27182EB
:104D58001BF0010F40F06D82129AAF18A7EB0907FC
:104D6800D51AAF42A8BF2F46002F0BDD319B3E441A
:104D78000133072BC4F8009067603296319300F333
:104D880085860834002FA8BFED1B002D7FF7BDAB2B
:104D9800102D319B7FF7EBAEDFF8C0911027DDF8BF
:104DA8003480CDF8549004E00834103D102D7FF77E
:104DB800E0AE01331036072BC4E90097CDE9313650
:104DC800F2DD4146504630AA00F0C6FF00287FF4C5
:104DD800C0AEDDE9313633ACE7E71BF0010F7FF4F5
:104DE800ECAE0123072FCDE93176256063607FF7AC
:104DF80012AF50460D9930AA00F0AEFF00287FF49C
:104E0800A8AEDDE931760DF1CC0904E7129B012B40
:104E18007FF701AF112B40F37F87504BCDF824B0BB
:104E280010259B46DDF83480159305E009F1080943
:104E3800103C102C40F33C8301371036072FC9E98A
:104E480000B5CDE93176F1DD4146504630AA00F093
:104E580083FF00287FF47DAEDDE931760DF1CC09C2
:104E6800E6E750460D9930AA00F076FF00287FF457
:104E780070AE329E33ACFFF738BB0F991BF01000B1
:104E880051F8043B55D11BF040054ED002460F9116
:104E98009BB2E9E40F9917F0100051F8043B41D197
:104EA80017F040053AD00F91024601219BB2A2E4C7
:104EB8005B425F464FF02D004FF0010162EB42026A
:104EC8009AE4099B5CAD0C939FE550460D9930AA76
:104ED80000F042FF00287FF43CAEDDE931760DF1A9
:104EE800CC0972E650460D9930AA00F035FF00282B
:104EF8007FF42FAEDDE931760DF1CC0972E61BF0B7
:104F0800010F3FF402AB31E55CAD7EE51BF4007F99
:104F180040F04F83DA171146FFF7FDBB17F4007214
:104F280040F052830F91012165E41BF4007240F0B8
:104F380046830F9198E41BF0100F40F094821BF009
:104F4800400F40F0CA831BF4007F00F08C820F9B57
:104F58000A9A1B681A702FE4889800087898000845
:104F6800DDE9160102460B46FBF706FE002840F075
:104F78001C86B9F1610F00F01F85B9F1410F00F0EF
:104F88004A85099B013300F0EF8329F02003472B62
:104F980000F0E1850E90DDE91612002A13464BF465
:104FA8008078C0F2E68400231593DDE91623CDE965
:104FB8002223A9F14103252B00F20E83DFE813F029
:104FC80018040C030C030C03D803A5040C030C03EE
:104FD8000C030C030C030C030C030C030C030C0351
:104FE8000C030C030C030C030C030C030C030C0341
:104FF8000C030C030C030C030C030C030C030C0331
:1050080018040C030C030C03D803A504A64B109634
:1050180019931BF0200200F01A810F9B073323F02D
:10502800070319465A6851F8083B0F911BF0010F06
:1050380009D053EA020106D030218DF899904BF03F
:10504800020B8DF8981002212BF48067FFF7D3BB71
:105058005F4610960FE41096FFF7F9BB934B109636
:105068001993D6E70F9B43AD1B688DF80C310123CC
:1050780006930C93FFF70BBB50460D9930AA00F02E
:105088006BFE00287FF465AD329E33AC7BE4402193
:105098005846FEF70BFE0D9B18601861002800F0BB
:1050A8003F8640230D9A5361FFF7DCB8099B2946D8
:1050B800062B28BF06232A4609950E95CDE913111C
:1050C8007B4D06930F970C931191FFF77BBA102F26
:1050D800319B40F31D86774932464FF010090E4642
:1050E800DDF83480159104E00834103F102F40F3A8
:1050F800EE8101331032072BC4E90069CDE9313262
:10510800F2DD4146504630AA00F026FE00287FF422
:1051180020ADDDE9313233ACE7E7129B2246EB18CC
:105128000993139B4C46002B3146DDF85080CDF88F
:1051380044B0DDF86C90209EDDF834B0149531DD74
:10514800B8F1000F40F3338108F1FF3831981D9B07
:10515800013031440728C2E900363291319000F31A
:1051680089800832099B99F800001F1B8742A8BF55
:105178000746002F0CDD3198394401300728C2E971
:1051880000473291319000F3558199F800000832B8
:10519800002FB4BF0546C51B002D14DC0444139B27
:1051A800002BCDDCB8F1000FCEDCCDF86C90A14619
:1051B800149D129B1446EB1899450E4628BF994634
:1051C800DDF844B0BFE5102D31983A4B23DD0C943F
:1051D80010272C461D4604E0103C102C02F1080252
:1051E80016DD0130334B10310728C2E90037CDE90D
:1051F8003101F1DD5946504630AA00F0ADFD0028D6
:105208007FF4A7ACDDE93101103C102C33AAE8DCAF
:105218002B4625460C9C013029440728CDE931014D
:105228001360556000F3AD8399F800000832044418
:10523800B5E7189A1A991644C4E90012319A3296B9
:105248000132072A319200F3C883083484E50F99A4
:105258001BF0100051F8043B0AD11BF0400503D0A5
:1052680002460F919BB2E1E61BF4007240F09D816B
:105278000F91DBE65946504630AA00F06DFD002834
:105288007FF467AC329933AA6CE707F480610C9716
:105298000E944FF0000E0F46DFF81CB01B9C0DF566
:1052A800B87CCDF8189010E0C8960008B4960008AD
:1052B800DC96000878980008CDCCCCCC0A2B72F18B
:1052C800000237D343463246AC46991841F10001F3
:1052D800ABFB010626F0030000EB96004FF0CC363E
:1052E800091A581A06FB00F662F10009A0FB0B80A8
:1052F8000BFB09660644052008F00109A9FB000913
:1053080040184FEA5808303048EAC6780EF1010EC6
:105318000CF1FF350CF8010C7608002FCED021785F
:105328008E45CBD1BEF1FF0FC8D00A2B72F1000217
:1053380080F0DA801B94DDF818900C9F0E9CCDF855
:1053480048E0FFF75EBB50460D9930AA159300F070
:1053580003FD00287FF4FDAB9DF89720329E159B36
:1053680033ACFFF79BB801236360319B994A013343
:105378000136072B32963193226000F3FE80083401
:10538800002976D1129A0BF0010313433FF4BDA80C
:10539800189B1A9A1E44C4E90023319B32960133A4
:1053A800072B319300F3D38104F1080272E0139BB9
:1053B80009F1FF39013B1393C8E601295F467FF4E1
:1053C80010AB3DE450460D9930AA00F0C5FC00280A
:1053D8007FF4BFAB329E33ACFFF7C3BA0DF1B80808
:1053E8000822002140462995FEF71EFA099B002B4A
:1053F800C0F28C8000260697CDF830903746994643
:105408000FE04346504643A902F01CFB421C06F13C
:105418000406384400F0BD83484506DC00F0FE83EE
:105428000746299B9A59002AEBD1DDF830900C9752
:10543800069F79E05946504630AA00F08DFC0028B6
:105448007FF487AB99F80000329933AAA0E650465A
:105458000D9930AA00F080FC00287FF47AAB329EC8
:1054680033ACFFF73CB80F9B0A9A1B681A60FFF72A
:10547800A3B9189B1A9A1E44C4E90023319B32969B
:105488000133072B319300F3628104F108020029EC
:10549800C0F20B83129901330E44072BCDE9313644
:1054A800156051603FF76FAB02F10804FFF72DB8A4
:1054B800DDF824B00137159B2644072FCDE9317656
:1054C800C9F80030C9F804407FF7A3AB91E4164649
:1054D8000133159A3E44072BCDE9313622606760C7
:1054E80000F32981083427E4209B1D99ED1A1A46F8
:1054F800284600F07BFD637803B101344FF0000EBD
:10550800E0E62D228DF89720FFF74BB80023504690
:105518001946CDF8008029AA02F0BAFA03460133E9
:105528000C9000F0368329950C9B002B31D0632B0F
:1055380000F3F780002343AD0E9308220021404674
:10554800FEF772F90C9E294633465046CDF8008086
:1055580029AA02F09DFA864240F0F28300230C9AB1
:10556800CDE9133322EAE271AB549DF897200F97E7
:10557800069109931193FFF725B850460D9930AA63
:1055880000F0EAFB00287FF4E4AA2799329E33ACA6
:10559800F6E60C9B9DF89720CDE913330F970693F9
:1055A800099311930E93FFF70DB82A460F91DBB2BA
:1055B8003CE543F3C01211465BB2FFF7ACB82A468C
:1055C8000F91DBB2FFF750B90F912A460121DBB2E8
:1055D800FFF711B9E4960008099B5046019302238E
:1055E80000932EAB049329AB039327AB0293DDE919
:1055F800222300F0FDFE1BF0010F054640F0078254
:105608002E9B1B1A1293279B1193119BD91C03DB0A
:10561800099A9A4280F28E81119BA9F10209013BF5
:10562800002127935FFA89F2002B8DF8A820B6BFD6
:105638002D222B22119B8DF8A920B8BFC3F101039D
:10564800092B40F392820DF1BF073A46DFF8D0C22A
:105658001E461046ACFB0321C90801EB8102A3EBEF
:1056680042023032632E00F8012C0B4600F1FF3263
:10567800EEDC303302F8013C831EBB4280F03A83F3
:105688000DF1A90213F8011BBB4202F8011FF9D161
:105698005CAB181AA0F1AD031C93129B1C9A012B4A
:1056A8001A440C9240F370820C9B189A13440C9382
:1056B8002BF4806343F4807B00230C9A149322EA32
:1056C800E272069213931193159B002B40F02181EF
:1056D8009DF897200993FEF775BF0F9B0A9A1B68E0
:1056E8001A80FFF769B80D9C5046214630AA00F091
:1056F80033FBA38903F04003FEF79BBE284600F066
:1057080035FD119B20EAE0714FF07309CDE91333A1
:105718009DF897200F970C90099306910E93FEF72A
:1057280051BF5046591CFEF7C1FA0546002800F043
:10573800FF820E9001E750460D9930AA00F00CFB4D
:1057480000287FF406AA329E33ACFFF7F5BA50461C
:105758000D9930AA00F000FB00287FF4FAA9DDE9D2
:105768003136279933AA92E606230E90099312E45C
:105778000223099A0132069200932EAB069E0493E7
:1057880029AB039327AB019602935046DDE9222308
:1057980000F02EFE29F02007462F054618BF4527A2
:1057A800064405D12B78302B00F03781279B1E4407
:1057B8000022DDE922010023FBF7ACF9002840F0C4
:1057C80022812E9BB34206D230215A1C2E92197088
:1057D8002E9B9E42F9D8279A11925B1B472F129352
:1057E8003FF413AF462F00F02681119B013B17E7CA
:1057F80027AADDE9220100F0E7FC00224FF07F53E1
:10580800FAF720FF02460B46CDE9062300220023C3
:10581800FBF780F908B101232793099B414A591ED8
:10582800414BCDE911B4B9F1610F08BF1A462E46B4
:10583800D346CDF8309013958946DDE90645924662
:10584800099207E000220023FBF764F9002840F0E2
:10585800D181B9460022354B20462946FAF7F2FE97
:105868000D460446FBF79EF98046FAF781FE02468C
:105878000B4620462946FAF72DFD1AF80830B9F1EB
:10588800FF3F324604460D4609F1FF3706F8013B53
:10589800D8D11746264B0022CDE90645DA46DDF871
:1058A8003090129CDDF844B0139DFBF75BF900289B
:1058B80000F0128209992E9716F8012CC97B3346FD
:1058C800914209D1302003F8010C2E9B5A1E2E92CA
:1058D80013F8012C9142F6D0392A0BBF099A0132EC
:1058E800927AD2B203F8012C33465B1B1293279BA2
:1058F800B9F1610F119303F1FF33279300F0C281CF
:1059080050224FF0410901218EE6099B069303239B
:1059180032E72D2200238DF897200993FEF755BE14
:10592800CDCCCCCCC8960008B49600080000304016
:105938000000E03FDDE91123934200F3DB801BF018
:10594800010F119B00F04781189A13440C931BF424
:10595800806F00F07A81119B4FF06709002B7DDC86
:105968000C9B23EAE37306930023C346CDE9133364
:10597800AAE622912D2103F1004315912393FFF705
:1059880018BB5946504630AA00F0E6F900287FF4C3
:10599800E0A899F80000329933AA0444FFF7FFBB46
:1059A80050460D9930AA00F0D7F900287FF4D1A805
:1059B800329E33ACFFF7B7B978238DF8993030238E
:1059C8008DF89830099B4BF0020B632B00F3B980DC
:1059D800002343AD0E93FFF7DEBA50460D9930AA67
:1059E80000F0BAF900287FF4B4A8279B329E33ACA4
:1059F800FFF7B2B9AE491591FEF71ABE00230E465D
:105A08000993FEF772BC279A33461192E5E6099B83
:105A18004727C618CCE65823CFE70022DDE9220144
:105A28000023FBF777F8002800F02781279B1E4406
:105A38001193731B12931199099A0BF00103002912
:105A480043EA020340F32D81002B40F001814FF01F
:105A58006609119B0C931BF4806F81D01B990B78FE
:105A6800FF2B00F061810026119A304604E00130D6
:105A78000131FF2B00F0D880934280F2D580D21AF2
:105A88004B78002BF3D10B780136F2E750460D998D
:105A980030AA00F061F900287FF45BA8279D129BCB
:105AA800329E33AC5D1BFFF76DB94F4210312CDAD3
:105AB800DFF800821024CDF8548003E00832103F4C
:105AC800102F24DD01331036072BC2E90084CDE9FD
